:020000040800F2
:100000003805002005010008091500084D140008F6
:1000100005150008710100088D1800080000000097
:10002000000000000000000000000000391500087A
:1000300085010008000000000D1500083B150008B0
:100040001F0100081F0100081F0100081F01000810
:100050001F0100081F0100081F0100081F01000800
:100060001F0100081F0100081F0100081F010008F0
:10007000750100081F0100081F0100081F0100088A
:100080001F0100081F0100081F0100081F010008D0
:100090001F0100081F0100081F0100081F010008C0
:1000A0001F0100081F0100081F0100081F010008B0
:1000B0001F0100081F0100081F0100081F010008A0
:1000C0001F0100081F0100081F0100081F01000890
:1000D0001F0100081F0100081F0100081F01000880
:1000E0001F0100081F0100081F010008DFF810D0E1
:1000F00000F02CF800480047E9180008AFF3008032
:10010000380500200648804706480047FEE7FEE71E
:10011000FEE7FEE7FEE7FEE7FEE7FEE7FEE7FEE7B7
:10012000A1150008ED000008D2B201E000F8012B93
:10013000491EFBD270470022F6E710B513460A4667
:1001400004461946FFF7F0FF204610BD064C074D48
:1001500006E0E06840F0010394E807009847103497
:10016000AC42F6D3FFF7C6FF98190008B81900088B
:1001700000BFFEE710B5024800F008F810BD00000F
:10018000F0000020704772B6FEE7000070B504462C
:10019000E06B05682068066894F8401004208840E9
:1001A0002840002846D006F00400002842D02068ED
:1001B000006800F0200028B92068006820F00400E2
:1001C0002168086057492068884201D1042027E04F
:1001D000544914312068884201D1402020E051491F
:1001E00028312068884201D1001519E04D493C3181
:1001F0002068884202D14FF4804011E049495031D3
:100200002068884202D14FF4802009E045496431DA
:100210002068884202D14FF4800001E04FF08060F6
:10022000404908394860E06A00287AD02046E16AEF
:10023000884776E094F84010022088402840A0B318
:1002400006F0020088B32068006800F0200040B982
:100250002068006820F00A0021680860012084F806
:10026000210030492068884201D1022028E02D4930
:1002700014312068884201D1202021E02949283109
:100280002068884201D140151AE026493C31206897
:10029000884202D14FF4005012E0224950312068C8
:1002A000884203D14FF400300AE017E01D49643161
:1002B0002068884202D14FF4001001E04FF0007036
:1002C00018490839486000BF002084F8200000BFAA
:1002D000A06A30B32046A16A884722E094F8401013
:1002E000082088402840E0B106F00800C8B1206826
:1002F000006820F00E002168086094F8401001208A
:100300008840E16B48600120A06384F8210000BFB1
:10031000002084F8200000BF206B10B12046216B24
:10032000884770BD080002400146002209B901203B
:100330007047164B0868C01A1423B0FBF3F0800016
:10034000086412480838C863022081F82100086850
:10035000026843F6F0708243D1E901031843CB6889
:1003600018430B6918434B6918438B691843CB69D1
:10037000184302430868026000208863012081F866
:100380002100002081F8200000BFD1E708000240D2
:100390002DE9F8470346002294466EE14FF001082C
:1003A00008FA02F4D1F8008008EA0400A0427DD1E6
:1003B000DFF8DCA2D1F80480A8EB0A09D0453AD0D6
:1003C00014DCB8F1030F50D009DCB8F1000F31D0C4
:1003D000B8F1010F1CD0B8F1020F49D120E0B8F1FB
:1003E000110F18D0B8F1120F42D11EE0B9F5881FD5
:1003F00025D006DCB9F5803F20D0B9F5801F37D174
:100400001AE0B9F5001F18D0B9F5041F30D117E074
:10041000D1F80CC02DE0D1F80C8008F1040C28E0D4
:10042000D1F80C8008F1080C23E0D1F80C8008F119
:100430000C0C1EE000BF00BF00BF00BF00BF00BF2C
:10044000D1F80880B8F1000F02D14FF0040C0BE096
:10045000D1F80880B8F1010F03D14FF0080C1C61EE
:1004600002E04FF0080C5C6103E04FF0000C00E08C
:1004700000BF00BFFF2801D8984601E003F104083F
:100480004646FF2802D84FEA820803E0A2F1080896
:100490004FEA88084746D6F800804FF00F0909FA5E
:1004A00007F928EA09080CFA07F900E088E048EAA9
:1004B0000908C6F80080D1F8048008F08058B8F127
:1004C000805F7DD100BFDFF8CC81D8F8188048F07C
:1004D0000108DFF8C091C9F81880C846D8F818801C
:1004E00008F00108CDF8008000BF00BF4FEAB9381E
:1004F0004FEA920958F829504FEA82784FEA187962
:100500004FF00F0808FA09F825EA0805DFF8888196
:10051000434502D14FF0000816E0DFF880814345E3
:1005200002D14FF001080FE0DFF87481434502D19A
:100530004FF0020808E0DFF86C81434502D14FF02C
:10054000030801E04FF004084FEA82794FEA197975
:1005500008FA09F848EA0505DFF84C814FEA9209E4
:1005600048F82950D1F8048008F48038B8F5803F65
:100570000AD1DFF83881D8F8008048EA0008DFF8AF
:100580002C91C9F8008009E0DFF82081D8F80080BC
:1005900028EA0008DFF81491C9F80080D1F8048037
:1005A00008F40038B8F5003F10D1DFF8008108F1F9
:1005B0000408D8F8008048EA0008DFF8F09000E06E
:1005C0005AE009F10409C9F800800DE0DFF8DC8089
:1005D00008F10408D8F8008028EA0008DFF8CC9079
:1005E00009F10409C9F80080D1F8048008F48018E2
:1005F000B8F5801F0ED1DFF8B48008F10808D8F8EC
:10060000008048EA0008DFF8A49009F10809C9F859
:1006100000800DE0DFF8948008F10808D8F8008029
:1006200028EA0008DFF8849009F10809C9F8008079
:10063000D1F8048008F40018B8F5001F0ED1DFF8D7
:100640006C8008F10C08D8F8008048EA0008DFF850
:100650005C9009F10C09C9F800800DE0DFF84C80CE
:1006600008F10C08D8F8008028EA0008DFF83C9070
:1006700009F10C09C9F80080521CD1F8008028FA51
:1006800002F8B8F1000F7FF489AEBDE8F8870000EA
:10069000000011100010024000080140000C014051
:1006A0000010014000140140080001400004014016
:1006B00001480068704700000000002003480068FF
:1006C0000349097808440149086070470000002088
:1006D0000800002010B50848006840F010000649E6
:1006E0000860032000F0A8F8002000F007F800F0F0
:1006F0002BF8002010BD00000020024070B5044619
:100700000E4800784FF47A71B1FBF0F00C4909689B
:10071000B1FBF0F5284600F0CDFC08B1012070BD1A
:10072000102C07D200222146501E00F047F8054841
:10073000046001E00120F2E70020F0E7080000205B
:100740000C0000200400002008B500BF114880699B
:1007500040F001000F4988610846806900F00100FF
:10076000009000BF00BF00BF0846C06940F0805045
:10077000C8610846C06900F08050009000BF00BF0B
:1007800000BF0549486820F0E06040F00070486014
:1007900000BF08BD001002400000014001460846AD
:1007A000002809DB00F01F0301229A4043099B0047
:1007B00003F1E023C3F8002100BF70472DE9F05F8B
:1007C00080460D461646002701F062F80746394676
:1007D0002A46334601F00700C0F1070ABAF1040FB8
:1007E00002D94FF0040A01E0C0F1070AD14600F136
:1007F000040ABAF1070F02D24FF0000A01E0A0F19B
:10080000030AD4464FF0010A0AFA09FAAAF1010ACA
:100810000AEA020A0AFA0CFA4FF0010B0BFA0CFB77
:10082000ABF1010B0BEA030B4AEA0B0421464046ED
:1008300001F036F8BDE8F09F00BF00F00702064B5C
:1008400019684FF6FF031940044B0B4343EA02219A
:10085000014B196000BF70470CED00E00000FA0585
:1008600070B504460D460CB9012070BD5A480068A9
:1008700000F00700A8420ED25748006820F0070099
:100880002843554908600846006800F00700A84260
:1008900001D00120E9E7207800F0020002281DD1F4
:1008A000207800F00400042805D14C48406840F44A
:1008B000E0604A494860207800F00800082805D127
:1008C0004648406840F460504449486043484068A6
:1008D00020F0F000A168084340494860207800F00B
:1008E000010078B36068012806D13C48006800F434
:1008F000003090B90120B8E76068022806D1374877
:10090000006800F0007040B90120AEE7334800688D
:1009100000F0020008B90120A7E73048406820F045
:100920000300616808432D494860FFF7C1FE064691
:1009300009E0FFF7BDFE801B41F28831884202D9F1
:10094000032092E707E02548406800F00C0061684A
:10095000B0EB810FEDD12048006800F00700A842FD
:100960000ED91D48006820F0070028431A49086086
:100970000846006800F00700A84201D0012074E793
:10098000207800F00400042807D11448406820F4BF
:10099000E060E168084311494860207800F00800F1
:1009A000082808D10D48406820F46050216940EAC9
:1009B000C1000A49486000F03FF808494968C1F39E
:1009C0000311074A515CC8400649086006480068A0
:1009D000FFF794FE002048E700200240001002408C
:1009E000801900080C000020040000200148006865
:1009F000704700000C00002000B5FFF7F7FF044926
:100A00004968C1F30221034A515CC84000BD00009F
:100A1000001002409019000800B5FFF7E7FF0449F5
:100A20004968C1F3C221034A515CC84000BD0000BF
:100A30000010024090190008F0B585B00FF26C0C60
:100A40009CE8E01001A8A0E8E0101CA52D68009526
:100A500000210022002300240020194D696801F0C4
:100A60000C05F5B1042D02D0082D19D101E015486F
:100A700019E001ADC1F38346AC5D01F4803555B199
:100A80000F4D6D68C5F340451DF805200D4D6543BC
:100A9000B5FBF2F302E00C4D04FB05F3184602E04F
:100AA00000BF084800BF00BF05B0F0BD0203040549
:100AB000060708090A0B0C0D0E0F101001020000AA
:100AC0000010024000127A0000093D00F8B504460B
:100AD0000CB90120F8BD207800F00100002878D082
:100AE000F848406800F00C0004280CD0F548406835
:100AF00000F00C00082811D1F248406800F4803062
:100B0000B0F5803F0AD1EF48006800F400300028BB
:100B10005FD0606800285CD10120DBE700BF60681F
:100B2000B0F5803F06D1E748006840F48030E549E1
:100B3000086028E0606858B9E248006820F4803016
:100B4000E04908600846006820F4802008601AE048
:100B50006068B0F5A02F0BD1DA48006840F480201F
:100B6000D84908600846006840F4803008600AE010
:100B7000D448006820F48030D249086008460068F4
:100B800020F48020086000BF606888B1FFF790FD06
:100B9000054606E0FFF78CFD401B642801D90320C1
:100BA00098E7C848006800F400300028F2D010E050
:100BB000FFF77EFD054606E0FFF77AFD401B64283F
:100BC00001D9032086E7BF48006800F40030002800
:100BD000F2D1207800F00200022857D1B9484068CD
:100BE00000F00C0050B1B748406800F00C00082835
:100BF00018D1B448406800F4803098B9B148006812
:100C000000F0020020B12069012801D0012061E735
:100C1000AC48006820F0F800616940EAC100A949C9
:100C2000086033E02069E8B10120A7490860FFF7B8
:100C30003FFD054606E0FFF73BFD401B022801D9BA
:100C4000032047E79F48006800F002000028F2D028
:100C50009C48006820F0F800616940EAC1009949A9
:100C6000086013E0002098490860FFF721FD054661
:100C700006E0FFF71DFD401B022801D9032029E7EC
:100C80009048006800F002000028F2D1207800F0BF
:100C9000080008282DD1A069B8B101208B4908604F
:100CA000FFF706FD054606E0FFF702FD401B0228A0
:100CB00001D903200EE78348406A00F002000028B3
:100CC000F2D0012000F024FC13E000207F490860EE
:100CD000FFF7EEFC054606E0FFF7EAFC401B0228A2
:100CE00001D90320F6E67748406A00F002000028A8
:100CF000F2D1207800F00400042873D10027714855
:100D0000C06900F0805070B900BF6E48C06940F003
:100D100080506C49C8610846C06900F0805000905E
:100D200000BF00BF01276A48006800F48070B0B9B6
:100D30006748006840F4807065490860FFF7B8FCB8
:100D4000054606E0FFF7B4FC401B642801D90320E8
:100D5000C0E65F48006800F480700028F2D000BF51
:100D6000E068012806D15748006A40F00100554963
:100D7000086227E0E06858B95248006A20F0010094
:100D8000504908620846006A20F00400086219E031
:100D9000E06805280BD14B48006A40F0040049493F
:100DA00008620846006A40F0010008620AE045480F
:100DB000006A20F00100434908620846006A20F0FA
:100DC0000400086200BFE068A0B1FFF771FC0546AF
:100DD00009E0FFF76DFC401B41F28831884202D9DF
:100DE000032077E622E03748006A00F0020000287E
:100DF000EFD012E0FFF75CFC054608E0FFF758FC77
:100E0000401B41F28831884201D9032062E62D4817
:100E1000006A00F002000028F0D1012F05D1294816
:100E2000C06920F080502749C86100BFE069C8B39D
:100E30002448406800F00C00082860D0E0690228CF
:100E400048D1002020490866FFF732FC054606E03D
:100E5000FFF72EFC401B022801D903203AE619486F
:100E6000006800F000700028F2D1206AB0F5803FE1
:100E700007D11448406820F40030A16808431149A4
:100E80004860D4E9080108430E49496821F4741107
:100E900008430C49486001200B490866FFF708FC2D
:100EA000054607E03DE0FFF703FC401B022801D99F
:100EB00003200FE60348006800F000700028F2D01D
:100EC0002FE0000000100240000042428004424235
:100ED00000700040002014490866FFF7E9FB054652
:100EE00006E0FFF7E5FB401B022801D90320F1E5EE
:100EF0000E48006800F000700028F2D111E0E069AF
:100F0000012800D1E6E50948466806F48031206AE8
:100F1000814204D106F47011606A814201D001203F
:100F2000D8E50020D6E50000000042420010024053
:100F300010B504460CB9012010BD606A38B960686C
:100F4000B0F5827F00D105E00021E16102E00021DF
:100F5000216161610021A16294F8510028B900204B
:100F600084F85000204600F043F8022084F8510035
:100F70002068006820F0400021680860A08800F424
:100F80008270218901F404410843A18901F40061C0
:100F90000843217C01F002010843217D01F0010199
:100FA0000843218B01F400710843217F01F03801CF
:100FB00008432021095D01F080010843218D01F4DF
:100FC00000510843216808600421A06901EA10402B
:100FD000216848602068C06920F400602168C86109
:100FE00000206065012084F851000020A4E7000083
:100FF00010B586B00446002002900390049005903E
:1010000027492068884249D100BF2648806940F4BA
:101010008050244988610846806900F4805001901E
:1010200000BF00BF00BF0846806940F0040088612F
:101030000846806900F00400019000BF00BF302026
:101040000290022003900320059002A91648FFF7A2
:101050009FF940200290002003900220049002A9F2
:101060001148FFF795F911481149086000204860C0
:1010700000210F4881608021C16049000161890021
:10108000416100218161C161FFF74EF908B1FFF7AD
:101090007AF800BF0648E064446200BF06B010BDA5
:1010A0000030014000100240000801401C000240D6
:1010B000F000002070B504462546681EB0F1807F20
:1010C00001D301200FE0681E4FF0E02148610F219D
:1010D0004FF0FF3000F0E4FB00204FF0E02188618A
:1010E00007200861002070BD30B502460B4600BFE6
:1010F00092F83C00012801D1022030BD012082F885
:101100003C0000BF022082F83D001068446810686F
:10111000816824F070041868044310684460104D1E
:101120001068A8420BD01068B0F1804F07D00D4D69
:101130001068A84203D00C4D1068A84205D121F0D8
:1011400080015868014310688160012082F83D00E9
:1011500000BF002082F83C0000BF00BFCDE70000C8
:10116000002C0140000400400008004010B586B08B
:101170000446002002900390049005902068B0F18E
:10118000804F16D100BF0C48806940F004000A4926
:1011900088610846806900F00400019000BF00BF2C
:1011A0000120029002200390059002A90348FFF756
:1011B000EFF806B010BD000000100240000801402A
:1011C00070B504460D46164600BF94F83C00012851
:1011D00001D1022070BD012084F83C0000BF36B16F
:1011E000042E1BD0082E31D00C2E5ED145E02946AE
:1011F000206800F011FA2068806940F0080021683A
:1012000088612068806920F0040021688861206876
:101210008069296908432168886147E02946206878
:1012200000F02AFA2068806940F400602168886133
:101230002068806920F48060216888612068806966
:10124000296940EA0120216888612FE02946206849
:1012500000F046FA2068C06940F008002168C861C3
:101260002068C06920F004002168C8612068C06956
:10127000296908432168C86118E02946206800F000
:1012800063FA2068C06940F400602168C861206882
:10129000C06920F480602168C8612068C06929693C
:1012A00040EA01202168C86100E000BF00BF00BF24
:1012B000002084F83C0000BF00BF8BE710B5044657
:1012C0000CB9012010BD94F83D0028B9002084F825
:1012D0003C00204600F026F8022084F83D00211D45
:1012E000206800F05FF9012084F8460000BF84F810
:1012F0003E0001213F20015540200155412001556C
:1013000000BF00BF012084F8420043200155442063
:1013100001554520015500BF012084F83D00002003
:10132000D0E7000008B50168B1F1804F0DD100BFD2
:101330000649C96941F00101044AD1611146C969F0
:1013400001F00101009100BF00BF08BD0010024084
:1013500010B504460CB9012010BDA06900B100E031
:1013600000BF94F8390028B9002084F838002046DE
:1013700000F028F8242084F839002068C06820F4A0
:1013800000502168C860204600F002FA2068006919
:1013900020F49040216808612068406920F02A000C
:1013A000216848612068C06840F400502168C86026
:1013B0000020E063202084F8390084F83A000020FF
:1013C000CAE7000010B586B00446002002900390E2
:1013D000049005901A49206888422ED100BF194810
:1013E000806940F48040174988610846806900F4AC
:1013F0008040019000BF00BF00BF0846806940F0F8
:10140000040088610846806900F00400019000BF74
:1014100000BF48150290022003900320059002A906
:101420000948FEF7B5FF4FF480600290002003905A
:10143000049002A90448FEF7ABFF06B010BD0000FF
:1014400000380140001002400008014000BFFEE7E4
:10145000104810B50E4901604FF4827141604FF49D
:10146000806181604900C16000214FF480220161E8
:10147000C0E905123022C0E90721416281620A21D8
:10148000C162FFF755FD002801D072B6FEE710BD1E
:10149000003001401000002010B58AB000240794ED
:1014A0001C2168460894FEF746FE15484FF080411F
:1014B000C0E900144FF6FF71C0E902410461846184
:1014C000FFF7FCFE08B172B6FEE7079407A90C48C7
:1014D0000894FFF709FE08B172B6FEE76020CDE977
:1014E000000402940022694605480494FFF768FE50
:1014F00008B172B6FEE70248FFF738FE0AB010BD29
:101500006800002000BFFEE700BFFEE77047000054
:1015100008B508490968C9084FF47A72B1FBF2F1BD
:101520004143009100BF00BF00994A1E009200296C
:10153000F9D108BD0C000020704710B5FFF7BEF8C8
:1015400010BD30B58FB028216846FEF7F4FD142198
:101550000AA8FEF7F0FD01210804CDE900100024DF
:10156000029402250491CDE907504FF4E010099050
:101570006846FFF7ABFA08B172B6FEE70F20CDE977
:101580000A054FF48060CDE90C4002210AA80E94B0
:10159000FFF766F9002801D072B6FEE70FB030BD44
:1015A0007047000010B50268184B984208D0B0F19F
:1015B000804F05D0164B984202D0164B984203D16B
:1015C00022F070024B681A43104B984208D0B0F1D9
:1015D000804F05D00E4B984202D00E4B984203D15B
:1015E00022F44072CB681A4322F080034C6943EA2C
:1015F000040202608B68C3620B688362034B9842EB
:1016000001D10B6903630123436110BD002C01402C
:10161000000400400008004030B5056A25F00105CF
:101620000562026A4368846924F0700424F00304AC
:101630000D682C4322F002028D682A430D4DA8420A
:1016400006D100BF22F00802CD682A4322F004022E
:10165000084DA84207D123F4807323F400734D6929
:101660002B438D692B43436084614D68456302625F
:1016700030BD0000002C014030B5056A25F0100592
:101680000562026A4368846924F4E04424F44074E7
:101690000D6844EA052422F020028D6842EA051212
:1016A0000E4DA84207D100BF22F08002CD6842EA69
:1016B000051222F04002094DA84209D123F48063AB
:1016C00023F400634D6943EA85038D6943EA85038A
:1016D000436084614D688563026230BD002C014027
:1016E00030B5056A25F480750562026A4368C469ED
:1016F00024F0700424F003040D682C4322F40072DB
:101700008D6842EA05220F4DA84207D100BF22F49E
:101710000062CD6842EA052222F48062094DA842A7
:1017200009D123F4805323F400534D6943EA051390
:101730008D6943EA05134360C4614D68C563026265
:1017400030BD0000002C014030B5056A25F48055FD
:101750000562036A4468C26922F4E04222F44072DE
:101760000D6842EA052223F400538D6843EA0533ED
:10177000064DA84204D124F480444D6944EA8514FE
:101780004460C2614D680564036230BD002C0140B5
:1017900070B504462168096921F44051E26811439B
:1017A000226811612269A1681143626941EA020558
:1017B0002168C96841F20C62914329432268D160D3
:1017C0002168496921F44071A2691143226851617D
:1017D0002D4A2168914202D1FFF71EF901E0FFF77F
:1017E0000BF900EBC00101EB001162689200B1FB44
:1017F000F2F100EBC00202EB001263689B00B2FB47
:10180000F3F26423B2FBF3F202EBC20303EB021226
:10181000A1EB8201322202EB01116422B1FBF2F151
:1018200001F0F00100EBC00202EB001263689B00C4
:10183000B2FBF3F26423B2FBF3F201EB021200EB12
:10184000C00101EB001163689B00B1FBF3F100EBF9
:10185000C00303EB00136668B600B3FBF6F364261F
:10186000B3FBF6F303EBC30606EB0313A1EB830113
:10187000322303EB01116423B1FBF3F101F00F01FB
:1018800011442268916070BD0038014000BFFEE73E
:1018900002480068C0F30220704700000CED00E031
:1018A00010B5002804DB0A07130E054A135406E09E
:1018B0000A07140E034A00F00F031B1FD45410BD77
:1018C00000E400E018ED00E002E008C8121F08C1C3
:1018D000002AFAD170477047002001E001C1121FB1
:1018E000002AFBD17047000008B5FEF7F3FEFFF7B2
:1018F00028FE2048816941F010018161816901F071
:1019000010010091816941F020018161816901F03C
:1019100020010091816941F004018161816901F038
:1019200004010091416941F00101416140690022D7
:1019300000F00100009011460C20FEF73FFF0C2044
:10194000FEF72CFFFFF784FDFFF7A6FD0B480A49C1
:101950000C2201604FF4E131416000218160C160DF
:10196000C0E904128161C161FFF7F2FC08B172B6EF
:10197000FEE7FEE70010024000380140B000002002
:10198000000000000000000001020304060708092F
:101990000000000001020304B81900080000002044
:1019A00010000000C8180008C81900081000002026
:1019B00028050000D81800080000000010000000F2
:0819C000010000000024F40006
:04000005080000ED02
:00000001FF
