:020000040800F2
:10000000F804002005010008B71200085511000887
:10001000B512000859030008A915000800000000E7
:10002000000000000000000000000000D9120008DD
:100030005B03000800000000B9120008DB12000892
:100040001F0100081F0100081F0100081F01000810
:100050001F0100081F0100081F0100081F01000800
:100060001F0100081F0100081F0100081F010008F0
:100070001F0100081F0100081F0100081F010008E0
:100080001F0100081F0100081F0100081F010008D0
:100090001F0100081F0100081F0100081F010008C0
:1000A0001F0100081F0100081F0100081F010008B0
:1000B0001F0100081F0100081F0100081F010008A0
:1000C0001F0100081F0100081F0100081F01000890
:1000D000BD1200081F0100081F0100081F010008D1
:1000E0001F0100081F0100081F010008DFF810D0E1
:1000F00000F020F900480047E9150008AFF3008040
:10010000F80400200648804706480047FEE7FEE75F
:10011000FEE7FEE7FEE7FEE7FEE7FEE7FEE7FEE7B7
:100120003D130008ED000008202A04DB203A00FA05
:1001300002F1002070479140C2F1200320FA03F33E
:10014000194390407047202A04DB203A21FA02F03C
:100150000021704721FA02F3D040C2F12002914001
:10016000084319467047D2B201E000F8012B491E3E
:10017000FBD270470022F6E710B513460A46044644
:100180001946FFF7F0FF204610BD70B521F000437F
:1001900003430CD0C1F30A550024D5EB040564EBEE
:1001A0000403D617AD1AB34102DB0020014670BD2F
:1001B000201841EB025170BD0EB540F2334102915F
:1001C0000021CDE900110A460B4600F064F803B0A7
:1001D00000BD01F0004330B421F0004150EA0102BB
:1001E00006D00A0DA2F56072C1F31301002A02DCE9
:1001F00030BC00207047440F44EAC104C100E0183D
:1002000030BC00EBC250AFF300800029A8BF70479C
:10021000401C490008BF20F00100704710B4B0FA3C
:1002200080FC00FA0CF050EA010404BF10BC7047D7
:1002300049B1CCF1200421FA04F411FA0CF118BFF1
:10024000012121430843A3EB0C01CB1D4FEA0061C0
:100250004FEA102042BF002010BC704700EBC35093
:1002600010440029A4BF10BC7047401C490008BFBF
:1002700020F0010010BC704710B5141E73F100048B
:1002800008DA401C41F1000192185B411A4301D188
:1002900020F0010010BD2DE9F04D92469B4611B1B2
:1002A000B1FA81F202E0B0FA80F220329046FFF714
:1002B0003BFF04460F4640EA0A0041EA0B01534661
:1002C0005A46084313D0114653EA010019D0C8F129
:1002D00040025046FFF737FF05460E465046594646
:1002E0004246FFF721FF084305D0012004E02046E5
:1002F0003946BDE8F08D0020054346EAE0762C4300
:1003000037430A986305E40AA0EB08000022FD0ABF
:1003100044EA47540A3002D500200146E9E70105C6
:1003200010196941DDE9084500196941BDE8F04D42
:10033000A2E70000064C074D06E0E06840F001032C
:1003400094E8070098471034AC42F6D3FFF7D2FE8A
:10035000CC160008EC160008FEE7704710B590F8C0
:1003600021100024022903D00421816301243DE0EF
:1003700001680A6822F00E020A6001680A6822F029
:1003800001020A601A4A0168914201D1012121E06B
:10039000174A1432914201D110211BE0144A28322D
:1003A000914201D1891515E0114A3C32914201D1A7
:1003B00089140FE00E4A5032914202D14FF480313D
:1003C00008E00B4A6432914202D14FF4801101E0FF
:1003D0004FF08071064A083A5160012180F82110DF
:1003E000002180F82010416B01B18847204610BDE4
:1003F0000800024070B5044600F00CF90546601C88
:1004000002D004480078044400F004F9401BA042E4
:10041000FAD370BD080000202DE9F84FDFF8B8913D
:10042000002409F1040A0AF1040B23460F270BF1FB
:10043000040EC9E00125A5402A40AA427DD1674E9D
:10044000D1F804C0ACEB0608B44532D014DCBCF1E2
:10045000030F3AD009DCBCF1000F2AD0BCF1010F28
:100460001CD0BCF1020F31D11DE0BCF1110F17D02F
:10047000BCF1120F2AD119E0B8F5881F19D006DC9B
:10048000B8F5803F15D0B8F5801F1FD111E0B8F541
:10049000001F0ED0B8F5041F18D10AE0CB6815E094
:1004A000CB681B1D12E0CB6808330FE0CB680C3320
:1004B0000CE08B682BB1012B4FF0080303D0456192
:1004C00004E0042302E0056100E00023FF2A01D8D4
:1004D000064601E000F104064FEA840501D9A5F1C2
:1004E0002005D6F8008007FA05FC28EA0C0803FA74
:1004F00005F548EA0508C6F800804D68ED0062D5AC
:10050000374DAE6946F00106AE61AD6924F00306D1
:1005100005F001050095334D06EB050CDCF808509D
:10052000A607360F07FA06F825EA0805DFF8B880AF
:10053000404503D14FF0000817E044E0DFF8AC80FD
:10054000404502D14FF001080FE0DFF8A48040459C
:1005500002D14FF0020808E0DFF89880404502D150
:100560004FF0030801E04FF0040808FA06F848EAE3
:100570000508CCF808804D68D9F80060ED034D46B9
:1005800001D5164300E096432E604D68DAF800600E
:10059000AD03554601D5164300E096432E604D68E5
:1005A000DBF80060ED025D4601D5164300E096439E
:1005B0002E604D68DEF80060AD02754601D5164329
:1005C00000E096432E60641C0D682A46E5407FF4E7
:1005D00031AFBDE8F88F00000004014000001110A9
:1005E000001002400000014000080140000C0140E2
:1005F0000010014000140140C26821EA02030A40D1
:1006000043EA0241016170470AB101617047090480
:10061000FBE70000014880687047000008000020E8
:100620000248816802781144816070470800002008
:10063000074810B5016841F010010160032000F087
:1006400075F8002000F006F800F024F8002010BD36
:100650000020024070B50D4D04464FF47A712878A1
:10066000B1FBF0F00A490968B1FBF0F000F0FAFBC9
:1006700048B9102C07D200222146501E00F036F84F
:1006800000206C6070BD012070BD000008000020DB
:10069000140000200C4808B5816941F00101816116
:1006A000816901F001010091C16941F08051C1618E
:1006B000C06900F0805000900448416821F0E0617A
:1006C00041F00071416008BD00100240000001408F
:1006D000002809DB00F01F02012191404009800041
:1006E00000F1E020C0F8001170470000F0B40E4B9C
:1006F0001B680C46C3F30223C3F10705042D00D980
:100700000425191D072901D2002300E0DB1E012664
:1007100006FA05F1491E214099409E40761E16407A
:100720003143F0BC00F041BF0CED00E0064900F0A1
:10073000070208684FF6FF03184040EA0220034A08
:1007400010430860704700000CED00E00000FA055F
:100750002DE9F0470F46050061D0434E306800F0A8
:100760000700B84209D2306820F0070038433060F3
:10077000306800F00700B84251D128683B4C81072F
:1007800012D5400703D5606840F4E06060602878C7
:10079000000703D5606840F4605060606068A96835
:1007A00020F0F000084360602878C00728D068680F
:1007B000012810D02168022810D0890700292EDADC
:1007C000616821F0030101436160FFF723FF804668
:1007D00041F288390DE021688903EFE78901EDE7EF
:1007E000FFF718FFA0EB0801494502D90320BDE837
:1007F000F0876068696800F00C00B0EB810FEFD102
:10080000306800F00700B8420BD9306820F00700CC
:1008100038433060306800F00700B84201D0012052
:10082000E5E72878400705D56068E96820F4E060CE
:10083000084360602878000706D56068296920F4BD
:10084000605040EAC100606000F038F86168084A12
:10085000C1F30311515CC8400649086006480068AE
:10086000FFF7F8FE0020C2E700200240001002401F
:10087000B4160008140000200C00002004480549AC
:1008800000684968044AC1F30221515CC8407047BE
:100890001400002000100240C41600080448054956
:1008A00000684968044AC1F3C221515CC8407047DE
:1008B0001400002000100240C416000812A185B0E8
:1008C0000FC98DE80F0014A0144A00680490516805
:1008D000134801F00C03042B10D0082B0ED1C1F3E8
:1008E0008343C9031DF803000AD5516804AAC1F364
:1008F0004041515C0A4A5043B0FBF1F005B07047EB
:1009000008494843FAE700000203040506070809FE
:100910000A0B0C0D0E0F1010010200000010024017
:1009200000127A0000093D002DE9F84F040070D054
:100930002078C04DC00749D06868C0F38100012805
:1009400007D06868C0F38100022809D16868C00335
:1009500006D52868800339D560680028E7D035E0DF
:100960006068B0F5803F0BD010B1B0F5A02F11D06A
:10097000286820F480302860286820F4802002E075
:10098000286840F480302860606890B1FFF742FE2C
:1009900006460AE0286840F480202860F0E700BF9F
:1009A000FFF738FE801B642873D828688003F7D5CA
:1009B0000CE0FFF72FFE064605E000BFFFF72AFE1A
:1009C000801B6428F0D828688003F7D420789A4EDA
:1009D00080074FF001094FF0000839D5686810F022
:1009E0000C0F07D06868C0F38100022809D168683D
:1009F000C00306D42868800714D52069012808D1CF
:100A000010E02069B0B1C6F80090FFF703FE07467A
:100A100005E00AE1FFF7FEFDC01B0228C4D82868E4
:100A20008007F7D52868616920F0F80040EAC10026
:100A300028600DE0C6F80080FFF7ECFD074604E0F3
:100A4000FFF7E8FDC01B022823D828688007F7D4E9
:100A5000207800072CD57948A169D9B1C0F8009059
:100A6000FFF7D8FD074604E0FFF7D4FDC01B0228BE
:100A70000FD8686A8007F7D571484FF4FA510068BB
:100A8000B0FBF1F0009000BF0098411E0091FAD237
:100A90000EE080E0C0F80080FFF7BCFD074604E0F0
:100AA000FFF7B8FDC01B022875D8686A8007F7D425
:100AB0002078400760D5E8690027C00008D4E869BD
:100AC00040F08050E861E869012700F08050009014
:100AD0005C480168C90513D40168834641F48071FC
:100AE0000160FFF797FD824606E000BFFFF792FD29
:100AF000A0EB0A0064284ED8DBF80000C005F5D54D
:100B0000E06801280AD008B1052813D0286A20F02F
:100B100001002862286A20F0040002E0286A40F000
:100B200001002862E06841F2883B98B1FFF772FD4E
:100B300082460BE0286A40F004002862EEE700BF1E
:100B4000FFF768FDA0EB0A0159455AD8286A8007CB
:100B5000F6D50CE0FFF75EFD824605E0FFF75AFD93
:100B6000A0EB0A0159454CD8286A8007F6D41FB17A
:100B7000E86920F08050E861E06988B36968C1F3F2
:100B80008101022944D00228C6F8608004D0FFF712
:100B900041FD044638E034E0FFF73CFD074604E041
:100BA000FFF738FDC01B02282BD828688001F7D436
:100BB000206AB0F5803F05D16868A16820F4003054
:100BC00008436860D4E908010843696821F4741196
:100BD00008436860C6F86090FFF71CFD044606E015
:100BE00025E000BFFFF716FD001B022809D8286882
:100BF0008001F7D51BE000BFFFF70CFD001B0228AA
:100C000002D90320BDE8F88F28688001F4D40EE0F3
:100C10000128F7D06868226A00F48031914204D13B
:100C2000616A00F47010884201D00120EAE70020D8
:100C3000E8E7000000100240000042428004424207
:100C400014000020007000407047000038B50446D2
:100C5000006842688168C9434B0606D5CB0704D1BA
:100C6000D3435B0601D4216C05E08B0708D4D34342
:100C70001B0605D4616C01B02046BDE83040084732
:100C80008B0601D54B0646D4D3439B0643D44B0673
:100C90000AD494F85130032B3ED0636D43F0040323
:100CA0006365C36883680093890609D4616D41F068
:100CB0000101616581680091016821F040010160D6
:100CC000606D002827D02068416821F0E001416074
:100CD000012084F85100900722D02068416821F05B
:100CE00003014160104DE06C40B14563E06CFFF7DB
:100CF00035FB18B1606D40F040006065A06C0028C5
:100D000009D04563A06CFFF729FB002803D0606D74
:100D100040F04000606538BDC1688068009038BD13
:100D20002046FFF791FF38BDC912000870B50400D6
:100D300009D0606A002540B125616561A56294F81B
:100D4000510040B10CE0012070BD6068B0F5827FB9
:100D5000F4D0E561F2E784F85050204600F040F806
:100D6000022084F851002068016821F040010160F0
:100D7000A088218900F4827001F404410843A1890C
:100D800001F400610843217C01F002010843217D48
:100D900001F001010843218B01F400710843217F18
:100DA00001F03801084394F8201001F08001084355
:100DB000218D01F40051084321680860A0690421D5
:100DC00001EA1040216848602068C16921F400618F
:100DD000C1616565012084F85100002070BD0000EC
:100DE00030B585B000240094019402940394006807
:100DF000194988422ED11948C16941F48041C16125
:100E0000C16901F480410491816941F00801816167
:100E10008069134D00F0080004904FF420400090CA
:100E2000022001900320039069462846FFF7F4FA58
:100E30004FF48040CDE90004012002906946284625
:100E4000FFF7EAFA002211462420FFF74FFC242086
:100E5000FFF73EFC05B030BD0038004000100240F6
:100E6000000C014010B5401EB0F1807F01D301207D
:100E700010BD4FF0E02460610F21601700F095FB7A
:100E80000020A06107202061002010BD70B590F8FF
:100E90003C20012A26D0012480F83C40022280F820
:100EA0003D2003685A689D6822F070060A68324344
:100EB0005A600D4B02689A4208D0B2F1804F05D0BB
:100EC0000A4B9A4202D00A4B9A4204D1496825F053
:100ED00080031943916080F83D40002180F83C1068
:100EE000084670BD022070BD002C01400004004087
:100EF0000008004000B585B00021009101910291E9
:100F000003910068B0F1804F11D10A48816941F026
:100F1000040181618069694600F0040004900120A9
:100F200000900220019003900348FFF775FA05B086
:100F300000BD0000001002400008014070B50446EA
:100F400090F83C000D4601280AD0012084F83C00AE
:100F500042B1042A18D0082A2AD00C2A4DD139E0EF
:100F6000022070BD206800F021FA2068816941F0FC
:100F7000080181612068816921F004018161206894
:100F800081692A69114311E0206800F037FA20686E
:100F9000816941F4006181612068816921F4806187
:100FA0008161206881692A6941EA0221816124E026
:100FB000206800F04FFA2068C16941F00801C16162
:100FC0002068C16921F00401C1612068C1692A69F2
:100FD000114311E0206800F069FA2068C16941F40A
:100FE0000061C1612068C16921F48061C16120682C
:100FF000C1692A6941EA0221C161002084F83C00EC
:1010000070BD10B5040003D094F83D0010B107E0A6
:10101000012010BD002084F83C00204600F01EF89E
:10102000022084F83D00211D206800F089F901208C
:1010300084F8460084F83E0084F83F0084F84000BD
:1010400084F8410084F8420084F8430084F84400A6
:1010500084F8450084F83D00002010BD08B5006804
:10106000B0F1804F08D10548C16941F00101C1616B
:10107000C06900F00100009008BD000000100240AF
:1010800070B5040004D094F83900002510B106E0D2
:10109000012070BD84F83850204600F023F8242049
:1010A00084F839002068C16821F40051C1602046ED
:1010B00000F01EFA2068016921F490410161206866
:1010C000416921F02A0141612068C16841F4005161
:1010D000C160E563202084F8390084F83A000020DC
:1010E00070BD000030B585B00024009401940294D6
:1010F000039400681449884224D11448816941F45A
:1011000080418161816901F480410491816941F0EC
:101110000401816180690E4D00F0040004904FF4D9
:101120000070009002200190032003906946284639
:10113000FFF772F92815CDE90004694628460294A4
:10114000FFF76AF905B030BD0038014000100240D9
:1011500000080140FEE700002DE9F04385B00024BF
:1011600025480094019402940394816941F0100190
:101170008161816901F010010491816941F02001D0
:101180008161816901F020010491816941F00401CC
:101190008161816901F004010491816941F00801D4
:1011A00081618069DFF8548000F008004FF4005539
:1011B0000490002229464046FFF726FADFF84090C7
:1011C0006F10002239464846FFF71EFA00950226A6
:1011D00001250396CDE9015469464046FFF71CF905
:1011E00000970396CDE9015469464846FFF714F984
:1011F00005B0BDE8F083000000100240001001407F
:10120000000C01400F4810B50D4901604FF4827188
:10121000416000214FF40062C0E9021292100161A6
:10122000C0E905122822C0E90721416281620A2132
:10123000C162FFF77BFD002801D072B6FEE710BD4A
:10124000003800401800002010B58AB00024079430
:101250001C2168460894FEF78DFF15484FF0804129
:10126000C0E900144FF6FF71C0E9024104618461D6
:10127000FFF7C7FE08B172B6FEE7079407A90C484E
:101280000894FFF703FE08B172B6FEE76020CDE9CF
:10129000000402940022694605480494FFF74EFEBC
:1012A00008B172B6FEE70248FFF724FE0AB010BD8F
:1012B00070000020FEE7FEE7704700000148FFF7DE
:1012C000C5BC00001800002010B5406A0021C1878D
:1012D000C186FFF7B9FC10BD7047FFF7A1B930B563
:1012E0008FB028216846FEF745FF14210AA8FEF7B3
:1012F00041FF01210804CDE90010002402940225D9
:101300000491CDE907504FF4E01009906846FFF7CB
:101310000BFB08B172B6FEE70F20CDE90A054FF4CA
:101320008060CDE90C4002210AA80E94FFF710FA64
:10133000002801D072B6FEE70FB030BD7047000044
:10134000F0B50268164B174C174D4FF08047984286
:1013500005D0B84203D0A04201D0A84203D122F068
:1013600070064A683243984205D0B84203D0A04282
:1013700001D0A84203D122F44074CA6822434C69C8
:1013800022F08002224302608A68C2620A68826296
:10139000984201D10969016301214161F0BD00005A
:1013A000002C0140000400400008004030B5026AF3
:1013B00022F001020262026A4368846924F0730524
:1013C0000C682C4322F002058A682A430A4DA84281
:1013D0000BD122F00805CA6823F440732A434D69F3
:1013E00022F004021D438B692B43436084614968EA
:1013F0004163026230BD0000002C014030B5026A3A
:1014000022F010020262026A436884690D6824F4C3
:10141000E64444EA05248D6822F0200242EA0512DF
:101420000B4DA8420ED1CD6822F0800242EA05128F
:101430004D6923F4406343EA85038D6922F040023D
:1014400043EA85034360846149688163026230BD79
:10145000002C014030B5026A22F480720262036AF5
:101460004268C46923F4007324F073050C682C43AC
:101470008D6843EA05230C4DA8420ED1CD6823F4B4
:10148000006343EA05234D6922F4405242EA051203
:101490008D6923F4806342EA05124260C4614968A1
:1014A000C163036230BD0000002C014030B5026A08
:1014B00022F480520262046A4268C3690D6823F410
:1014C000E64343EA05238D6824F4005444EA0534D6
:1014D000064DA84204D14D6922F4804242EA8512A9
:1014E0004260C36149680164046230BD002C014060
:1014F00070B5044600680169E26821F44051114367
:1015000001612169A0680843616908432168CA68CC
:1015100041F20C639A430243CA6020684169A269A0
:1015200021F44071114341611E492068884202D173
:10153000FFF7B4F901E0FFF7A1F900EBC00101EBFF
:101540000012606864218000B2FBF0F3B3FBF1F39A
:101550006FF018067343B2FBF0F5B2FBF0F605EB43
:101560008305322303EB0515B5FBF1F5B6FBF1F668
:1015700005F0F00505EB0615B2FBF0F6B2FBF0F056
:10158000B0FBF1F06FF01802504306EB800003EB64
:101590000010B0FBF1F0216800F00F0028448860D3
:1015A00070BD000000380140FEE70907090E002861
:1015B00004DB00F1E02080F80014704700F00F0019
:1015C00000F1E02080F8141D704702E008C8121FE7
:1015D00008C1002AFAD170477047002001E001C11C
:1015E000121F002AFBD17047FFF722F8FFF777FEA2
:1015F000FFF7B2FDFFF728FE284827490C220160BB
:101600004FF4E131416000218160C160C0E9041202
:101610008161C161FFF734FD08B172B6FEE7FFF7E3
:10162000F1FD1F49102008601E48016841F040018B
:101630000160001D016841F040010160DFF8648035
:10164000DFF864B0194D1A4C4FF4FA794FF4005A90
:1016500086144FF4AA6708F10C084846FEF7CAFE44
:1016600051465846FEF7C8FF002231462846FEF78D
:10167000CBFFC8F800702088FEF79EFD6FF00102D6
:10168000FEF783FDFEF7A5FD606001223146284686
:10169000FEF7BAFFE1E7000000380140B800002083
:1016A000100801400038004000100140000C0140CB
:1016B0000000002000000000000000000102030400
:1016C000060708090000000001020304EC160008E8
:1016D0000000002018000000CA15000804170008C8
:1016E00018000020E0040000DA15000800000000E7
:1016F00000000000010000001000000000000000D9
:041700000024F400CD
:04000005080000ED02
:00000001FF
